{
  "address": "0x632BaC7D6B6daCfcFc40509f2beD649Cf4D3B5F6",
  "abi": [
    {
      "inputs": [
        {
          "internalType": "contract IZeroEx",
          "name": "zeroEx",
          "type": "address"
        },
        {
          "internalType": "address payable",
          "name": "allowanceTarget",
          "type": "address"
        },
        {
          "internalType": "address payable",
          "name": "beneficiary",
          "type": "address"
        }
      ],
      "stateMutability": "nonpayable",
      "type": "constructor"
    },
    {
      "anonymous": false,
      "inputs": [
        {
          "indexed": true,
          "internalType": "address",
          "name": "allowanceTarget",
          "type": "address"
        }
      ],
      "name": "AllowanceTargetChanged",
      "type": "event"
    },
    {
      "anonymous": false,
      "inputs": [
        {
          "indexed": true,
          "internalType": "address",
          "name": "beneficiary",
          "type": "address"
        }
      ],
      "name": "BeneficiaryChanged",
      "type": "event"
    },
    {
      "anonymous": false,
      "inputs": [
        {
          "indexed": true,
          "internalType": "bytes4",
          "name": "signature",
          "type": "bytes4"
        },
        {
          "indexed": true,
          "internalType": "address",
          "name": "implementation",
          "type": "address"
        }
      ],
      "name": "ImplementationOverrideSet",
      "type": "event"
    },
    {
      "anonymous": false,
      "inputs": [
        {
          "indexed": true,
          "internalType": "address",
          "name": "previousOwner",
          "type": "address"
        },
        {
          "indexed": true,
          "internalType": "address",
          "name": "newOwner",
          "type": "address"
        }
      ],
      "name": "OwnershipTransferred",
      "type": "event"
    },
    {
      "anonymous": false,
      "inputs": [
        {
          "indexed": true,
          "internalType": "address",
          "name": "zeroEx",
          "type": "address"
        }
      ],
      "name": "ZeroExChanged",
      "type": "event"
    },
    {
      "stateMutability": "payable",
      "type": "fallback"
    },
    {
      "inputs": [],
      "name": "getAllowanceTarget",
      "outputs": [
        {
          "internalType": "address",
          "name": "",
          "type": "address"
        }
      ],
      "stateMutability": "view",
      "type": "function"
    },
    {
      "inputs": [],
      "name": "getBeneficiary",
      "outputs": [
        {
          "internalType": "address",
          "name": "",
          "type": "address"
        }
      ],
      "stateMutability": "view",
      "type": "function"
    },
    {
      "inputs": [
        {
          "internalType": "bytes4",
          "name": "signature",
          "type": "bytes4"
        }
      ],
      "name": "getFunctionImplementation",
      "outputs": [
        {
          "internalType": "address",
          "name": "impl",
          "type": "address"
        }
      ],
      "stateMutability": "nonpayable",
      "type": "function"
    },
    {
      "inputs": [],
      "name": "getZeroEx",
      "outputs": [
        {
          "internalType": "contract IZeroEx",
          "name": "",
          "type": "address"
        }
      ],
      "stateMutability": "view",
      "type": "function"
    },
    {
      "inputs": [
        {
          "internalType": "bytes",
          "name": "msgData",
          "type": "bytes"
        },
        {
          "internalType": "address",
          "name": "feeToken",
          "type": "address"
        },
        {
          "internalType": "uint256",
          "name": "fee",
          "type": "uint256"
        }
      ],
      "name": "optimalSwap",
      "outputs": [
        {
          "internalType": "bytes",
          "name": "",
          "type": "bytes"
        }
      ],
      "stateMutability": "payable",
      "type": "function"
    },
    {
      "inputs": [],
      "name": "owner",
      "outputs": [
        {
          "internalType": "address",
          "name": "",
          "type": "address"
        }
      ],
      "stateMutability": "view",
      "type": "function"
    },
    {
      "inputs": [
        {
          "internalType": "bytes",
          "name": "msgData",
          "type": "bytes"
        },
        {
          "internalType": "address",
          "name": "feeToken",
          "type": "address"
        },
        {
          "internalType": "address",
          "name": "inputToken",
          "type": "address"
        },
        {
          "internalType": "uint256",
          "name": "inputAmount",
          "type": "uint256"
        },
        {
          "internalType": "address",
          "name": "outputToken",
          "type": "address"
        },
        {
          "internalType": "uint256",
          "name": "fee",
          "type": "uint256"
        }
      ],
      "name": "proxiedSwap",
      "outputs": [
        {
          "internalType": "bytes",
          "name": "",
          "type": "bytes"
        }
      ],
      "stateMutability": "payable",
      "type": "function"
    },
    {
      "inputs": [],
      "name": "renounceOwnership",
      "outputs": [],
      "stateMutability": "nonpayable",
      "type": "function"
    },
    {
      "inputs": [
        {
          "internalType": "address payable",
          "name": "newAllowanceTarget",
          "type": "address"
        }
      ],
      "name": "setAllowanceTarget",
      "outputs": [],
      "stateMutability": "nonpayable",
      "type": "function"
    },
    {
      "inputs": [
        {
          "internalType": "address payable",
          "name": "beneficiary",
          "type": "address"
        }
      ],
      "name": "setBeneficiary",
      "outputs": [],
      "stateMutability": "nonpayable",
      "type": "function"
    },
    {
      "inputs": [
        {
          "internalType": "bytes4",
          "name": "signature",
          "type": "bytes4"
        },
        {
          "internalType": "address",
          "name": "implementation",
          "type": "address"
        }
      ],
      "name": "setImplementationOverride",
      "outputs": [],
      "stateMutability": "nonpayable",
      "type": "function"
    },
    {
      "inputs": [
        {
          "internalType": "contract IZeroEx",
          "name": "newZeroEx",
          "type": "address"
        }
      ],
      "name": "setZeroEx",
      "outputs": [],
      "stateMutability": "nonpayable",
      "type": "function"
    },
    {
      "inputs": [
        {
          "internalType": "address",
          "name": "newOwner",
          "type": "address"
        }
      ],
      "name": "transferOwnership",
      "outputs": [],
      "stateMutability": "nonpayable",
      "type": "function"
    },
    {
      "stateMutability": "payable",
      "type": "receive"
    }
  ],
  "transactionHash": "0x62c7f7a0bd5e56ff6e90daa7d007f7badac9d655731efb9ee3a6f8bb5e316f42",
  "args": [
    "0xDef1C0ded9bec7F1a1670819833240f027b25EfF",
    "0xDef1C0ded9bec7F1a1670819833240f027b25EfF",
    "0xa619308DBEdF2429636ef8c099707d3c9a37e23d"
  ],
  "solcInputHash": "5c1a6cf13699e55ab9c173c7de434a97",
  "bytecode": "0x60806040523480156200001157600080fd5b5060405162002093380380620020938339810160408190526200003491620000d1565b600062000040620000cd565b600080546001600160a01b0319166001600160a01b0383169081178255604051929350917f8be0079c531659141344cd1fd0a4f28419497f9722a3daafe3b4186f6b6457e0908290a350600380546001600160a01b039485166001600160a01b0319918216179091556002805493851693821693909317909255600180549190931691161790556200013d565b3390565b600080600060608486031215620000e6578283fd5b8351620000f38162000124565b6020850151909350620001068162000124565b6040850151909250620001198162000124565b809150509250925092565b6001600160a01b03811681146200013a57600080fd5b50565b611f46806200014d6000396000f3fe6080604052600436106100d65760003560e01c8063972fdd261161007f578063f7c3a33b11610059578063f7c3a33b146102f8578063f91438261461030d578063fdf03fa11461032d578063fe53d0b61461034d576100dd565b8063972fdd26146102a3578063b6016b77146102c3578063f2fde38b146102d8576100dd565b8063715018a6116100b0578063715018a6146102595780638a14c7591461026e5780638da5cb5b1461028e576100dd565b80631c31f710146101ec578063565a2e2c1461020e5780635cf5402614610239576100dd565b366100dd57005b6000610123600080368080601f01602080910402602001604051908101604052809392919081815260200183838082843760009201919091525092939250506103609050565b90506000610130826103ac565b905073ffffffffffffffffffffffffffffffffffffffff811661015e5761015e610159836104a9565b610561565b600060608273ffffffffffffffffffffffffffffffffffffffff1660003660405161018a929190611a26565b600060405180830381855af49150503d80600081146101c5576040519150601f19603f3d011682016040523d82523d6000602084013e6101ca565b606091505b5091509150816101dd576101dd81610561565b6101e681610569565b50505050005b3480156101f857600080fd5b5061020c61020736600461182f565b610571565b005b34801561021a57600080fd5b506102236106af565b6040516102309190611a55565b60405180910390f35b61024c6102473660046118db565b6106cb565b6040516102309190611b21565b34801561026557600080fd5b5061020c610aa0565b34801561027a57600080fd5b5061020c61028936600461182f565b610b82565b34801561029a57600080fd5b50610223610cb7565b3480156102af57600080fd5b506102236102be366004611887565b6103ac565b3480156102cf57600080fd5b50610223610cd3565b3480156102e457600080fd5b5061020c6102f336600461182f565b610cef565b34801561030457600080fd5b50610223610e3c565b34801561031957600080fd5b5061020c61032836600461182f565b610e58565b34801561033957600080fd5b5061020c6103483660046118a3565b610f8d565b61024c61035b366004611969565b61109f565b600081600401835110156103815761038161015960038551856004016111ba565b5001602001517fffffffff000000000000000000000000000000000000000000000000000000001690565b7fffffffff00000000000000000000000000000000000000000000000000000000811660009081526004602052604090205473ffffffffffffffffffffffffffffffffffffffff16806104a4576003546040517f972fdd2600000000000000000000000000000000000000000000000000000000815273ffffffffffffffffffffffffffffffffffffffff9091169063972fdd269061044f908590600401611af4565b602060405180830381600087803b15801561046957600080fd5b505af115801561047d573d6000803e3d6000fd5b505050506040513d601f19601f820116820180604052508101906104a1919061184b565b90505b919050565b60607f734e6e1c6ec3f883cac8d13d3e7390b280f5e94424662aa29e27394ed56586c9826040516024016104dd9190611af4565b604080517fffffffffffffffffffffffffffffffffffffffffffffffffffffffffffffffe08184030181529190526020810180517bffffffffffffffffffffffffffffffffffffffffffffffffffffffff167fffffffff00000000000000000000000000000000000000000000000000000000909316929092179091529050919050565b805160208201fd5b805160208201f35b610579611260565b73ffffffffffffffffffffffffffffffffffffffff16610597610cb7565b73ffffffffffffffffffffffffffffffffffffffff16146105ed576040517f08c379a00000000000000000000000000000000000000000000000000000000081526004016105e490611d23565b60405180910390fd5b73ffffffffffffffffffffffffffffffffffffffff811661063a576040517f08c379a00000000000000000000000000000000000000000000000000000000081526004016105e490611cec565b600180547fffffffffffffffffffffffff00000000000000000000000000000000000000001673ffffffffffffffffffffffffffffffffffffffff83811691909117918290556040519116907f373c72efabe4ef3e552ff77838be729f3bc3d8c586df0012902d1baa2377fa1d90600090a250565b60015473ffffffffffffffffffffffffffffffffffffffff1690565b60606106d78683611264565b600073ffffffffffffffffffffffffffffffffffffffff861673eeeeeeeeeeeeeeeeeeeeeeeeeeeeeeeeeeeeeeee14156107c45773ffffffffffffffffffffffffffffffffffffffff871673eeeeeeeeeeeeeeeeeeeeeeeeeeeeeeeeeeeeeeee14156107845761074785846112e9565b341461077f576040517f08c379a00000000000000000000000000000000000000000000000000000000081526004016105e490611dfd565b6107bd565b8434146107bd576040517f08c379a00000000000000000000000000000000000000000000000000000000081526004016105e490611d58565b50836108cd565b6107d086333088611328565b6002546040517fdd62ed3e00000000000000000000000000000000000000000000000000000000815260009173ffffffffffffffffffffffffffffffffffffffff808a169263dd62ed3e9261082c923092911690600401611a76565b60206040518083038186803b15801561084457600080fd5b505afa158015610858573d6000803e3d6000fd5b505050506040513d601f19601f8201168201806040525081019061087c91906119c4565b9050858110156108cb576002546108cb9073ffffffffffffffffffffffffffffffffffffffff166108ad8884611356565b73ffffffffffffffffffffffffffffffffffffffff8a169190611398565b505b60035460405160009160609173ffffffffffffffffffffffffffffffffffffffff909116908490610901908e908e90611a26565b60006040518083038185875af1925050503d806000811461093e576040519150601f19603f3d011682016040523d82523d6000602084013e610943565b606091505b5091509150816109565761095681610561565b73ffffffffffffffffffffffffffffffffffffffff861673eeeeeeeeeeeeeeeeeeeeeeeeeeeeeeeeeeeeeeee14156109ab57471561099d5761099833476114d2565b6109a6565b6109a681610561565b610a89565b6040517f70a0823100000000000000000000000000000000000000000000000000000000815260009073ffffffffffffffffffffffffffffffffffffffff8816906370a0823190610a00903090600401611a55565b60206040518083038186803b158015610a1857600080fd5b505afa158015610a2c573d6000803e3d6000fd5b505050506040513d601f19601f82011682018060405250810190610a5091906119c4565b90508015610a7e57610a7973ffffffffffffffffffffffffffffffffffffffff88163383611580565b610a87565b610a8782610561565b505b610a9281610569565b505050979650505050505050565b610aa8611260565b73ffffffffffffffffffffffffffffffffffffffff16610ac6610cb7565b73ffffffffffffffffffffffffffffffffffffffff1614610b13576040517f08c379a00000000000000000000000000000000000000000000000000000000081526004016105e490611d23565b6000805460405173ffffffffffffffffffffffffffffffffffffffff909116907f8be0079c531659141344cd1fd0a4f28419497f9722a3daafe3b4186f6b6457e0908390a3600080547fffffffffffffffffffffffff0000000000000000000000000000000000000000169055565b610b8a611260565b73ffffffffffffffffffffffffffffffffffffffff16610ba8610cb7565b73ffffffffffffffffffffffffffffffffffffffff1614610bf5576040517f08c379a00000000000000000000000000000000000000000000000000000000081526004016105e490611d23565b73ffffffffffffffffffffffffffffffffffffffff8116610c42576040517f08c379a00000000000000000000000000000000000000000000000000000000081526004016105e490611cb5565b600280547fffffffffffffffffffffffff00000000000000000000000000000000000000001673ffffffffffffffffffffffffffffffffffffffff83811691909117918290556040519116907f12de7cdcfa92c9e2744861bffda63417a4bc29e3c916f0d3e9655d684cc7acc690600090a250565b60005473ffffffffffffffffffffffffffffffffffffffff1690565b60035473ffffffffffffffffffffffffffffffffffffffff1690565b610cf7611260565b73ffffffffffffffffffffffffffffffffffffffff16610d15610cb7565b73ffffffffffffffffffffffffffffffffffffffff1614610d62576040517f08c379a00000000000000000000000000000000000000000000000000000000081526004016105e490611d23565b73ffffffffffffffffffffffffffffffffffffffff8116610daf576040517f08c379a00000000000000000000000000000000000000000000000000000000081526004016105e490611b56565b6000805460405173ffffffffffffffffffffffffffffffffffffffff808516939216917f8be0079c531659141344cd1fd0a4f28419497f9722a3daafe3b4186f6b6457e091a3600080547fffffffffffffffffffffffff00000000000000000000000000000000000000001673ffffffffffffffffffffffffffffffffffffffff92909216919091179055565b60025473ffffffffffffffffffffffffffffffffffffffff1690565b610e60611260565b73ffffffffffffffffffffffffffffffffffffffff16610e7e610cb7565b73ffffffffffffffffffffffffffffffffffffffff1614610ecb576040517f08c379a00000000000000000000000000000000000000000000000000000000081526004016105e490611d23565b73ffffffffffffffffffffffffffffffffffffffff8116610f18576040517f08c379a00000000000000000000000000000000000000000000000000000000081526004016105e490611dc6565b600380547fffffffffffffffffffffffff00000000000000000000000000000000000000001673ffffffffffffffffffffffffffffffffffffffff83811691909117918290556040519116907f058ec768b4d987625b47f998642d52a1ef938ff8445348c5653a5a7c15c9d79290600090a250565b610f95611260565b73ffffffffffffffffffffffffffffffffffffffff16610fb3610cb7565b73ffffffffffffffffffffffffffffffffffffffff1614611000576040517f08c379a00000000000000000000000000000000000000000000000000000000081526004016105e490611d23565b7fffffffff00000000000000000000000000000000000000000000000000000000821660008181526004602052604080822080547fffffffffffffffffffffffff00000000000000000000000000000000000000001673ffffffffffffffffffffffffffffffffffffffff861690811790915590519092917fc161c67ca327eadedf1f0825c92841b42fcc2127c83d52d8849770c997f9962091a35050565b60606110ab8383611264565b60006110f1600087878080601f01602080910402602001604051908101604052809392919081815260200183838082843760009201919091525092939250506103609050565b905060006110fe826103ac565b905073ffffffffffffffffffffffffffffffffffffffff811661112757611127610159836104a9565b600060608273ffffffffffffffffffffffffffffffffffffffff168989604051611152929190611a26565b600060405180830381855af49150503d806000811461118d576040519150601f19603f3d011682016040523d82523d6000602084013e611192565b606091505b5091509150816111a5576111a581610561565b6111ae81610569565b50505050949350505050565b6060632800659560e01b8484846040516024016111d993929190611b34565b604080517fffffffffffffffffffffffffffffffffffffffffffffffffffffffffffffffe08184030181529190526020810180517bffffffffffffffffffffffffffffffffffffffffffffffffffffffff167fffffffff000000000000000000000000000000000000000000000000000000009093169290921790915290505b9392505050565b3390565b73ffffffffffffffffffffffffffffffffffffffff821673eeeeeeeeeeeeeeeeeeeeeeeeeeeeeeeeeeeeeeee14156112be576001546112b99073ffffffffffffffffffffffffffffffffffffffff16826114d2565b6112e5565b6001546112e5908390339073ffffffffffffffffffffffffffffffffffffffff1684611328565b5050565b600082820183811015611259576040517f08c379a00000000000000000000000000000000000000000000000000000000081526004016105e490611bb3565b80156113505761135073ffffffffffffffffffffffffffffffffffffffff851684848461159f565b50505050565b600082821115611392576040517f08c379a00000000000000000000000000000000000000000000000000000000081526004016105e490611c21565b50900390565b600061142f828573ffffffffffffffffffffffffffffffffffffffff1663dd62ed3e30876040518363ffffffff1660e01b81526004016113d9929190611a76565b60206040518083038186803b1580156113f157600080fd5b505afa158015611405573d6000803e3d6000fd5b505050506040513d601f19601f8201168201806040525081019061142991906119c4565b906112e9565b90506113508463095ea7b360e01b8584604051602401611450929190611ace565b604080517fffffffffffffffffffffffffffffffffffffffffffffffffffffffffffffffe08184030181529190526020810180517bffffffffffffffffffffffffffffffffffffffffffffffffffffffff167fffffffff00000000000000000000000000000000000000000000000000000000909316929092179091526115c0565b80156112e55760008273ffffffffffffffffffffffffffffffffffffffff16826040516114fe90611a52565b60006040518083038185875af1925050503d806000811461153b576040519150601f19603f3d011682016040523d82523d6000602084013e611540565b606091505b505090508061157b576040517f08c379a00000000000000000000000000000000000000000000000000000000081526004016105e490611bea565b505050565b61157b8363a9059cbb60e01b8484604051602401611450929190611ace565b611350846323b872dd60e01b85858560405160240161145093929190611a9d565b6060611622826040518060400160405280602081526020017f5361666545524332303a206c6f772d6c6576656c2063616c6c206661696c65648152508573ffffffffffffffffffffffffffffffffffffffff166116769092919063ffffffff16565b80519091501561157b57808060200190518101906116409190611867565b61157b576040517f08c379a00000000000000000000000000000000000000000000000000000000081526004016105e490611e34565b6060611685848460008561168d565b949350505050565b6060824710156116c9576040517f08c379a00000000000000000000000000000000000000000000000000000000081526004016105e490611c58565b6116d28561178f565b611708576040517f08c379a00000000000000000000000000000000000000000000000000000000081526004016105e490611d8f565b600060608673ffffffffffffffffffffffffffffffffffffffff1685876040516117329190611a36565b60006040518083038185875af1925050503d806000811461176f576040519150601f19603f3d011682016040523d82523d6000602084013e611774565b606091505b5091509150611784828286611795565b979650505050505050565b3b151590565b606083156117a4575081611259565b8251156117b45782518084602001fd5b816040517f08c379a00000000000000000000000000000000000000000000000000000000081526004016105e49190611b21565b60008083601f8401126117f9578182fd5b50813567ffffffffffffffff811115611810578182fd5b60208301915083602082850101111561182857600080fd5b9250929050565b600060208284031215611840578081fd5b813561125981611ebd565b60006020828403121561185c578081fd5b815161125981611ebd565b600060208284031215611878578081fd5b81518015158114611259578182fd5b600060208284031215611898578081fd5b813561125981611ee2565b600080604083850312156118b5578081fd5b82356118c081611ee2565b915060208301356118d081611ebd565b809150509250929050565b600080600080600080600060c0888a0312156118f5578283fd5b873567ffffffffffffffff81111561190b578384fd5b6119178a828b016117e8565b909850965050602088013561192b81611ebd565b9450604088013561193b81611ebd565b935060608801359250608088013561195281611ebd565b8092505060a0880135905092959891949750929550565b6000806000806060858703121561197e578384fd5b843567ffffffffffffffff811115611994578485fd5b6119a0878288016117e8565b90955093505060208501356119b481611ebd565b9396929550929360400135925050565b6000602082840312156119d5578081fd5b5051919050565b600081518084526119f4816020860160208601611e91565b601f017fffffffffffffffffffffffffffffffffffffffffffffffffffffffffffffffe0169290920160200192915050565b6000828483379101908152919050565b60008251611a48818460208701611e91565b9190910192915050565b90565b73ffffffffffffffffffffffffffffffffffffffff91909116815260200190565b73ffffffffffffffffffffffffffffffffffffffff92831681529116602082015260400190565b73ffffffffffffffffffffffffffffffffffffffff9384168152919092166020820152604081019190915260600190565b73ffffffffffffffffffffffffffffffffffffffff929092168252602082015260400190565b7fffffffff0000000000000000000000000000000000000000000000000000000091909116815260200190565b60006020825261125960208301846119dc565b6060810160088510611b4257fe5b938152602081019290925260409091015290565b60208082526026908201527f4f776e61626c653a206e6577206f776e657220697320746865207a65726f206160408201527f6464726573730000000000000000000000000000000000000000000000000000606082015260800190565b6020808252601b908201527f536166654d6174683a206164646974696f6e206f766572666c6f770000000000604082015260600190565b60208082526012908201527f556e61626c6520746f2073656e64204554480000000000000000000000000000604082015260600190565b6020808252601e908201527f536166654d6174683a207375627472616374696f6e206f766572666c6f770000604082015260600190565b60208082526026908201527f416464726573733a20696e73756666696369656e742062616c616e636520666f60408201527f722063616c6c0000000000000000000000000000000000000000000000000000606082015260800190565b60208082526018908201527f496e76616c696420616c6c6f77616e6365207461726765740000000000000000604082015260600190565b60208082526013908201527f496e76616c69642062656e656669636961727900000000000000000000000000604082015260600190565b6020808252818101527f4f776e61626c653a2063616c6c6572206973206e6f7420746865206f776e6572604082015260600190565b60208082526012908201527f496e73756666696369656e742076616c75650000000000000000000000000000604082015260600190565b6020808252601d908201527f416464726573733a2063616c6c20746f206e6f6e2d636f6e7472616374000000604082015260600190565b60208082526016908201527f496e76616c6964207a65726f4578206164647265737300000000000000000000604082015260600190565b6020808252601b908201527f496e73756666696369656e742076616c75652077697468206665650000000000604082015260600190565b6020808252602a908201527f5361666545524332303a204552433230206f7065726174696f6e20646964206e60408201527f6f74207375636365656400000000000000000000000000000000000000000000606082015260800190565b60005b83811015611eac578181015183820152602001611e94565b838111156113505750506000910152565b73ffffffffffffffffffffffffffffffffffffffff81168114611edf57600080fd5b50565b7fffffffff0000000000000000000000000000000000000000000000000000000081168114611edf57600080fdfea26469706673582212202432835b72d6ce0f8facc3ef17839bd230e98164f9dfe2b0a64e051e72f2199964736f6c634300060c0033",
  "devdoc": {
    "author": "Dire_0x (github.com/dire-0x)",
    "details": "A generic proxy contract which extracts a fee before delegation",
    "kind": "dev",
    "methods": {
      "constructor": {
        "details": "Construct this contract and specify a fee beneficiary, 0x proxy contract address, and allowance target"
      },
      "getFunctionImplementation(bytes4)": {
        "details": "Get function implementation address based on signature ",
        "params": {
          "signature": "function signature"
        },
        "returns": {
          "impl": "address of implementation"
        }
      },
      "optimalSwap(bytes,address,uint256)": {
        "details": "Delegates calls to the specified implementation contract and extracts a fee based on provided arguments",
        "params": {
          "fee": "Fee amount collected and sent to the beneficiary",
          "feeToken": "The ERC20 we wish to extract a user fee from. If this is ETH it should be the standard 0xeee ETH address",
          "msgData": "The byte data representing a swap using the original ZeroEx contract. This is either recieved from the 0x API directly or we construct it in order to perform a Uniswap trade"
        }
      },
      "owner()": {
        "details": "Returns the address of the current owner."
      },
      "proxiedSwap(bytes,address,address,uint256,address,uint256)": {
        "details": "Forwards calls to the zeroEx contract and extracts a fee based on provided arguments",
        "params": {
          "fee": "Fee amount collected and sent to the beneficiary",
          "feeToken": "The ERC20 we wish to extract a user fee from. If this is ETH it should be the standard 0xeee ETH address",
          "inputAmount": "The amount of _inputToken being sold",
          "inputToken": "The ERC20 the user is selling. If this is ETH it should be the standard 0xeee ETH address",
          "msgData": "The byte data representing a swap using the original ZeroEx contract. This is either recieved from the 0x API directly or we construct it in order to perform a Uniswap trade",
          "outputToken": "The ERC20 the user is buying. If this is ETH it should be the standard 0xeee ETH address"
        }
      },
      "renounceOwnership()": {
        "details": "Leaves the contract without owner. It will not be possible to call `onlyOwner` functions anymore. Can only be called by the current owner. NOTE: Renouncing ownership will leave the contract without an owner, thereby removing any functionality that is only available to the owner."
      },
      "setAllowanceTarget(address)": {
        "details": "Set a new new allowance target address ",
        "params": {
          "newAllowanceTarget": "New allowance target address"
        }
      },
      "setBeneficiary(address)": {
        "details": "Set a new beneficiary address ",
        "params": {
          "beneficiary": "New beneficiary target address"
        }
      },
      "setImplementationOverride(bytes4,address)": {
        "details": "Set a custom implementation feature  ",
        "params": {
          "implementation": "address of the custom feature",
          "signature": "function signature"
        }
      },
      "setZeroEx(address)": {
        "details": "Set a new 0x proxy contract address",
        "params": {
          "newZeroEx": "New 0x proxy address"
        }
      },
      "transferOwnership(address)": {
        "details": "Transfers ownership of the contract to a new account (`newOwner`). Can only be called by the current owner."
      }
    },
    "title": "mistX proxy contract for 0x proxy",
    "version": 1
  },
  "userdoc": {
    "kind": "user",
    "methods": {},
    "version": 1
  },
  "storageLayout": {
    "storage": [
      {
        "astId": 680,
        "contract": "contracts/MistXProxy.sol:MistXProxy",
        "label": "_owner",
        "offset": 0,
        "slot": "0",
        "type": "t_address"
      },
      {
        "astId": 1776,
        "contract": "contracts/MistXProxy.sol:MistXProxy",
        "label": "_beneficiary",
        "offset": 0,
        "slot": "1",
        "type": "t_address_payable"
      },
      {
        "astId": 1778,
        "contract": "contracts/MistXProxy.sol:MistXProxy",
        "label": "_allowanceTarget",
        "offset": 0,
        "slot": "2",
        "type": "t_address_payable"
      },
      {
        "astId": 1780,
        "contract": "contracts/MistXProxy.sol:MistXProxy",
        "label": "_zeroEx",
        "offset": 0,
        "slot": "3",
        "type": "t_contract(IZeroEx)2404"
      },
      {
        "astId": 1784,
        "contract": "contracts/MistXProxy.sol:MistXProxy",
        "label": "_implementationOverrides",
        "offset": 0,
        "slot": "4",
        "type": "t_mapping(t_bytes4,t_address)"
      }
    ],
    "types": {
      "t_address": {
        "encoding": "inplace",
        "label": "address",
        "numberOfBytes": "20"
      },
      "t_address_payable": {
        "encoding": "inplace",
        "label": "address payable",
        "numberOfBytes": "20"
      },
      "t_bytes4": {
        "encoding": "inplace",
        "label": "bytes4",
        "numberOfBytes": "4"
      },
      "t_contract(IZeroEx)2404": {
        "encoding": "inplace",
        "label": "contract IZeroEx",
        "numberOfBytes": "20"
      },
      "t_mapping(t_bytes4,t_address)": {
        "encoding": "mapping",
        "key": "t_bytes4",
        "label": "mapping(bytes4 => address)",
        "numberOfBytes": "32",
        "value": "t_address"
      }
    }
  }
}